:04000000B7EF00F066
:100008005682FACF05F0FBCF06F0D9CF07F0DACF4A
:1000180008F0F2A812EF00F014EF00F01DEF00F066
:10002800F2A219EF00F01BEF00F01DEF00F0C2EC98
:1000380014F0F2A622EF00F024EF00F03EEF00F0FB
:10004800F2A029EF00F02BEF00F03EEF00F07DA8C2
:1000580030EF00F032EF00F03EEF00F081A837EF0C
:1000680000F039EF00F03EEF00F0010EA0EC14F0C4
:100078005DEF00F0F2A643EF00F045EF00F05DEF12
:1000880000F0F2A04AEF00F04CEF00F05DEF00F056
:100098007DA851EF00F053EF00F05DEF00F081B85C
:1000A80058EF00F05AEF00F05DEF00F0000EA0EC02
:1000B80014F09DAC62EF00F064EF00F06DEF00F01B
:1000C8009EAC69EF00F06BEF00F06DEF00F07CEC98
:1000D80014F0F2AA72EF00F074EF00F07DEF00F078
:1000E800F2A479EF00F07BEF00F07DEF00F0C0ECB8
:1000F80014F09DA082EF00F084EF00F08DEF00F087
:100108009EA089EF00F08BEF00F08DEF00F0BEECC1
:1001180014F09DA292EF00F094EF00F09DEF00F034
:100128009EA299EF00F09BEF00F09DEF00F0BCEC71
:1001380014F0A0A2A2EF00F0A4EF00F0ADEF00F0E1
:10014800A1A2A9EF00F0ABEF00F0ADEF00F0BAEC20
:1001580014F008C0DAFF07C0D9FF06C0FBFF05C0CE
:0A016800FAFF5692110073EF11F038
:10100000003738392F3435362A3132332D23303DED
:101010002B41444320544553540020504F54313AFF
:0D1020002000504F54323A2000257500008A
:10102E001A50800B236E1A501A24296E19AE22EF15
:10103E0008F024EF08F025EF08F029802950D8B4E5
:10104E002BEF08F02DEF08F040EF08F02928D8A478
:10105E0033EF08F035EF08F03DEF08F0000E176E95
:10106E00000E186E000E196E000E1A6E198E48EFD5
:10107E0008F0000E176E000E186E000E196E000EA0
:10108E001A6E1E50800B231A1E501E24286E1DAE83
:10109E0053EF08F055EF08F056EF08F0288028506F
:1010AE00D8B45CEF08F05EEF08F071EF08F0282876
:1010BE00D8A464EF08F066EF08F06EEF08F0000EAB
:1010CE001B6E000E1C6E000E1D6E000E1E6E1D8E13
:1010DE0079EF08F0000E1B6E000E1C6E000E1D6EDA
:1010EE00000E1E6E2850D8B47FEF08F081EF08F086
:1010FE0089EF08F02950D8A487EF08F089EF08F09F
:10110E0093EF08F0000E176E000E186E000E196E9B
:10111E00000E1A6E2BEF0AF01D501702F3CF2EF0B1
:10112E00F4CF2FF02E50246E256A266A276A2F5090
:10113E002A6E2B6A2C6A2D6A1C501802F3CF2EF0E1
:10114E00F4CF2FF02E502426000E25222622272201
:10115E002F502A26000E2B222C222D221B50190234
:10116E00F3CF2EF0F4CF2FF02E502426000E252292
:10117E00262227222F502A26000E2B222C222D2209
:10118E0026C027F025C026F024C025F0246A1B5067
:10119E001802F3CF2EF0F4CF2FF02E5024262F501E
:1011AE002522000E2622000E27221C501702F3CFF6
:1011BE002EF0F4CF2FF02E5024262F502522000E85
:1011CE002622000E272226C027F025C026F024C096
:1011DE0025F0246A1B501702F3CF2EF0F4CF2FF018
:1011EE002E5024262F502522000E2622000E2722B6
:1011FE001D501802F3CF2EF0F4CF2FF02E502A26CA
:10120E002F502B22000E2C22000E2D221C501902C4
:10121E00F3CF2EF0F4CF2FF02E502A262F502B2264
:10122E00000E2C22000E2D221D501902F3CF2EF08F
:10123E00F4CF2FF02E501F6E2F50206E216A226A8F
:10124E0021C022F020C021F01FC020F01F6A1F50C5
:10125E002A2620502B2221502C2222502D2224C00F
:10126E001FF025C020F026C021F027C022F0190E55
:10127E0046EF09F0D8902232213220321F32E82E6A
:10128E0041EF09F01F502A2620502B2221502C22EC
:10129E0022502D2226C027F025C026F024C025F08E
:1012AE00246A285029C01FF0206A1F26000E202213
:1012BE00820E1F242E6EFF0E20202F6E7CEF09F063
:1012CE00D8902A362B362C362D3627AE71EF09F0F4
:1012DE0073EF09F074EF09F02A80D8902436253682
:1012EE00263627362E06D8A02F062CAE81EF09F013
:1012FE0083EF09F067EF09F0000E286E27AE8AEF34
:10130E0009F08CEF09F0B0EF09F0FF0E24141F6EF8
:10131E00FF0E2514206EFF0E2614216E7F0E27144D
:10132E00226E1F50201021102210D8B4A1EF09F008
:10133E00A3EF09F0A7EF09F0010E286EB0EF09F048
:10134E002AA0ACEF09F0AEEF09F0B0EF09F0A3EF71
:10135E0009F02850D8B4B6EF09F0B8EF09F0DCEF79
:10136E0009F0010E2A26000E2B222C222D222DA052
:10137E00C3EF09F0C5EF09F0DCEF09F02AC01FF04A
:10138E002BC020F02CC021F02DC022F022342232AE
:10139E00213220321F321FC02AF020C02BF021C074
:1013AE002CF022C02DF02E4A2F2A2FBEE7EF09F087
:1013BE002F5008E12E28D8A0E7EF09F0E9EF09F049
:1013CE00F3EF09F0000E2A6E000E2B6E800E2C6EBF
:1013DE007F0E2D6E21EF0AF02FBE00EF0AF02F5078
:1013EE0006E12E04D8B0FEEF09F000EF0AF00CEF84
:1013FE000AF0000E2A6E000E2B6E000E2C6E000EE2
:10140E002D6E000E236E21EF0AF02EC029F0FF0E76
:10141E002A16FF0E2B167F0E2C16000E2D1629A047
:10142E001BEF0AF01DEF0AF01EEF0AF02C8ED8907B
:10143E0029302D6E23502D122AC017F02BC018F014
:10144E002CC019F02DC01AF01200ADEC14F0DB0E0A
:10145E001B6E010E1C6E040E1D6E110E1E6E1E50A6
:10146E00D8A4100E1F6EACEC10F00B0E0001EA6F3C
:10147E00260EE96F5D0EE82EFED7E92FFCD7EA2F78
:10148E00FAD700F000F0DB0E146E010E156E78EC3C
:10149E0012F0DB0E1B6E010E1C6E020E1D6E1A0E6E
:1014AE001E6E1E50D8A4100E1F6EACEC10F04D6EBA
:1014BE00DB0E1B6E020E1C6E010E1D6E220E1E6EBC
:1014CE001E50D8A4100E1F6EACEC10F04D6E3E5098
:1014DE00D8A474EF0AF076EF0AF07FEF0AF0CB0E85
:1014EE000F6E000E106E03EC14F04D6EA0EF0AF0AE
:1014FE003E04D8A485EF0AF087EF0AF090EF0AF0C9
:10150E00CB0E0F6E010E106E03EC14F04D6EA0EFAD
:10151E000AF0020E3E18D8A497EF0AF099EF0AF0DF
:10152E00A0EF0AF0CB0E0F6E020E106E03EC14F04D
:10153E004D6E4BC030F04CC031F0A70E326E4DECFC
:10154E000FF04D6E49C030F04AC031F0A10E326E30
:10155E004DEC0FF04D6EDB0E1B6E010E1C6E070E6A
:10156E001D6EA70E1E6E1F6AACEC10F04D6EDB0EDC
:10157E001B6E020E1C6E070E1D6EA10E1E6E1F6AD6
:10158E00ACEC10F04D6EF60E1B6E280E1C6E9C0E03
:10159E001D6E400E1E6E47C009F048C00AF00B6A61
:1015AE000C6A000E2FEC0BF009C017F00AC018F0F1
:1015BE000BC019F00CC01AF017EC08F017C030F081
:1015CE0018C031F019C032F01AC033F0D8EC0DF05B
:1015DE0030C034F031C035F034C009F035C00AF0F7
:1015EE00000E0C6E0A0E0B6E00EC11F009C034F0FA
:1015FE000AC035F0355009E11A0E345CD8A00AEF56
:10160E000BF00CEF0BF016EF0BF0500E116E4EECC4
:10161E0014F04E0E116E4EEC14F06EEF0AF03550C3
:10162E0007E11A0E345CD8B01FEF0BF021EF0BF070
:10163E002BEF0BF0500E116E65EC14F04E0E116E7A
:10164E0065EC14F06EEF0AF06EEF0AF0B7EF00F0F3
:10165E00116E1150D8B436EF0BF038EF0BF05AEF85
:10166E000BF00CBE3FEF0BF03DEF0BF05AEF0BF013
:10167E0009C00DF00AC00EF00BC00FF00CC010F038
:10168E000D1E0E1E0F1E101E0D2A000E0E220F22F4
:10169E0010220DC013F00EC014F00FC015F010C0C4
:1016AE0016F062EF0BF009C013F00AC014F00BC075
:1016BE0015F00CC016F009500A100B100C10D8A41F
:1016CE006BEF0BF06DEF0BF077EF0BF0000E096E7A
:1016DE00000E0A6E000E0B6E000E0C6E08EF0CF074
:1016EE00960E126E81EF0BF0122AD890163215322A
:1016FE0014321332000E13140D6E000E14140E6EEF
:10170E00000E15140F6EFE0E1614106E0D500E10E8
:10171E000F101010D8A496EF0BF098EF0BF07BEF94
:10172E000BF0A6EF0BF0122A010E1326000E142258
:10173E0015221622D8901632153214321332000E9C
:10174E0013140D6E000E14140E6E000E15140F6E83
:10175E00FF0E1614106E0D500E100F101010D8A490
:10176E00BBEF0BF0BDEF0BF09AEF0BF0C5EF0BF0EC
:10177E001206D890133614361536163615BECAEF25
:10178E000BF0CCEF0BF0D4EF0BF0020E1260D2EF99
:10179E000BF0D4EF0BF0BFEF0BF012B0D9EF0BF054
:1017AE00DBEF0BF0DCEF0BF0159ED890123212C06F
:1017BE000DF00E6A0F6A106A0DC010F00F6A0E6AF5
:1017CE000D6A0D5013120E5014120F5015121050A8
:1017DE0016121150D8B4F6EF0BF0F8EF0BF000EF35
:1017EE000CF00CBEFFEF0BF0FDEF0BF000EF0CF06A
:1017FE00168E13C009F014C00AF015C00BF016C0F7
:10180E000CF012001250D96EDA6ADFCFF6FF100E0E
:10181E00F76EF86A0800F550250AD8A419EF0CF0F7
:10182E001BEF0CF0B4EF0CF01250D96EDA6ADF2A0F
:10183E00000E00017C6F000E7B6F7BC03CF07D695B
:10184E007E691250D96EDA6ADF50196E19C0F6FF32
:10185E00100EF76EF86A0800F550750AD8A43AEF24
:10186E000CF03CEF0CF0AEEF0CF01350D96EDA6AC0
:10187E00020EDF26DF5CD96EDA6ADECF15F0DECF20
:10188E0016F01250D96EDA6A1928DF6EA1EF0CF03D
:10189E00200E1A6E1A06000E1A24D96EDA6A010E7E
:1018AE00DA2215C009F016C00AF0000E0C6E0A0EF0
:1018BE000B6E46EC12F00950300FDF6E15C009F0BA
:1018CE0016C00AF0000E0C6E0A0E0B6E00EC11F034
:1018DE0009C015F00AC016F015501610D8B47AEFDC
:1018EE000CF07CEF0CF096EF0CF01A50D8A482EFAF
:1018FE000CF084EF0CF051EF0CF096EF0CF0000EA4
:10190E001A24D96EDA6A010EDA22DF50146E1450E0
:10191E00096E0A6A11C00BF057EC10F01A2A200E4D
:10192E001A18D8A49DEF0CF09FEF0CF086EF0CF078
:10193E00C6EF0CF019C0F6FF100EF76EF86A08002D
:10194E00F550750AD8B44FEF0CF0AEEF0CF0125004
:10195E00D96EDA6ADF2AC6EF0CF01250D96EDA6A47
:10196E00DFCFF6FF100EF76EF86A0800F550096E1D
:10197E000A6A11C00BF057EC10F0AEEF0CF012002B
:10198E00010E0F6E0950D8B4CFEF0CF0D1EF0CF062
:10199E00E1EF0CF00950D96EDA6ADF30E832E83246
:1019AE00070B0A6E070E0A64DFEF0CF0E1EF0CF086
:1019BE0038EF0DF0000E0F6E4EEF0DF00950D96E90
:1019CE00DA6ADF30E832E832070B0A6E010E0B6E70
:1019DE000A2AF4EF0CF0D8900B360A2EF2EF0CF028
:1019EE000B50FF0A0C6E0950D96EDA6ADF50070BE6
:1019FE00020DF350C10FD96EDA6ADECF0DF0DDCFD6
:101A0E000EF00DC0D9FF0EC0DAFF0C50DF164EEFF0
:101A1E000DF00950D96EDA6ADF30E832E832070B82
:101A2E000A6E010E0B6E0A2A1FEF0DF0D8900B36C0
:101A3E000A2E1DEF0DF00950D96EDA6ADF50070B32
:101A4E00020DF350C10FD96EDA6ADECF0CF0DDCF86
:101A5E000DF00CC0D9FF0DC0DAFF0B50DF124EEFA8
:101A6E000DF00950D96EDA6ADFBC40EF0DF043EF8E
:101A7E000DF0010E44EF0DF0000E000AD8B4E5EFA4
:101A8E000CF0010AD8B410EF0DF0E1EF0CF00F508E
:101A9E001200010E106E0950D8B458EF0DF05AEF27
:101AAE000DF06AEF0DF00950D96EDA6ADF30E832C8
:101ABE00E832070B0B6E070E0B6468EF0DF06AEF42
:101ACE000DF0C1EF0DF0000E106ED6EF0DF00950B7
:101ADE00D96EDA6ADF30E832E832070B0B6E010E90
:101AEE000C6E0B2A7DEF0DF0D8900C360B2E7BEF83
:101AFE000DF00C50FF0A0D6E0950D96EDA6ADF50E8
:101B0E00070B020DF350B70FD96EDA6ADECF0EF067
:101B1E00DDCF0FF00EC0D9FF0FC0DAFF0D50DF166C
:101B2E00D6EF0DF00950D96EDA6ADF30E832E832BE
:101B3E00070B0B6E010E0C6E0B2AA8EF0DF0D89052
:101B4E000C360B2EA6EF0DF00950D96EDA6ADF5067
:101B5E00070B020DF350B70FD96EDA6ADECF0DF018
:101B6E00DDCF0EF00DC0D9FF0EC0DAFF0C50DF1224
:101B7E00D6EF0DF00A500B6E0C6A0C50000AD8B45A
:101B8E00CBEF0DF06AEF0DF00B50000AD8B46EEFEC
:101B9E000DF0010AD8B499EF0DF06AEF0DF0105068
:101BAE001200323433340001E66FE651D8A4E2EF6E
:101BBE000DF0E4EF0DF0EEEF0DF0000E306E000EB6
:101BCE00316E000E326E000E336E5BEF0EF030C0D3
:101BDE00E1F031C0E2F032C0E3F033C0E4F0200EA9
:101BEE00FEEF0DF0D890E433E333E233E133E82E29
:101BFE00F9EF0DF0E151E56F328EFF0E3016FF0E4C
:101C0E003116FF0E3216000E3316960EE65FE6BF45
:101C1E0015EF0EF013EF0EF02BEF0EF0E651800ADB
:101C2E00970FD8B01DEF0EF01FEF0EF021EF0EF054
:101C3E00E4EF0DF0D8903332323231323032E63FAB
:101C4E0021EF0EF043EF0EF01F0EE66531EF0EF0B2
:101C5E0033EF0EF03BEF0EF0E4EF0DF0D890303690
:101C6E00313632363336E607E651D8A441EF0EF060
:101C7E0043EF0EF035EF0EF0E551D8B449EF0EF00C
:101C8E004BEF0EF053EF0EF0331E321E311E306C42
:101C9E00000E31223222332230C030F031C031F00A
:101CAE0032C032F033C033F012000B6E93EF0EF0F1
:101CBE007E809280D4EF0EF07E829282D4EF0EF070
:101CCE007E849284D4EF0EF07E869286D4EF0EF050
:101CDE007E88928AD4EF0EF07E8A9680D4EF0EF034
:101CEE007E8C9682D4EF0EF07E8E9684D4EF0EF01C
:101CFE007F809384D4EF0EF07F829386D4EF0EF024
:101D0E007F849382D4EF0EF07F869388D4EF0EF00B
:101D1E007F889380D4EF0EF00B50096E0A6A0A503A
:101D2E00000AD8B49DEF0EF0D4EF0EF00950000A61
:101D3E00D8B45FEF0EF0010AD8B463EF0EF0030AC9
:101D4E00D8B467EF0EF0010AD8B46BEF0EF0070AA5
:101D5E00D8B46FEF0EF0010AD8B473EF0EF0030A89
:101D6E00D8B477EF0EF0010AD8B47BEF0EF00F0A5D
:101D7E00D8B47FEF0EF0010AD8B483EF0EF0030A49
:101D8E00D8B487EF0EF0010AD8B48BEF0EF0070A25
:101D9E00D8B48FEF0EF0D4EF0EF01200000E1B6EC3
:101DAE001750D8A4DDEF0EF0DFEF0EF0E1EF0EF0DE
:101DBE004CEF0FF017C011F0D8EC12F01A6E172876
:101DCE00116ED8EC12F01A6E000E1B6E17501B24FB
:101DDE00020F116ED8EC12F01B2A030E1B64FAEFE1
:101DEE000EF0FCEF0EF0EDEF0EF0340E186EF20E5C
:101DFE00E82EFED7182EFCD717C014F0380E156E2D
:101E0E0078EC12F00D0E186EFC0EE82EFED7182E82
:101E1E00FCD717C014F0380E156E78EC12F0020EC7
:101E2E00196E860E186E990EE82EFED7182EFCD758
:101E3E00192EFAD7000017C014F0380E156E78EC74
:101E4E0012F017C014F0010E156E78EC12F017C0D8
:101E5E0014F0020E156E78EC12F017C014F0060E88
:101E6E00156E78EC12F017C014F00C0E156E78EC9F
:101E7E0012F017C014F0280E156E78EC12F017C081
:101E8E0014F0800E156E78EC12F0120020EEE1F0D8
:101E9E00050EDE6AE806FDE2000E0001E86F325024
:101EAE00D8A45CEF0FF05EEF0FF062EF0FF0000EB4
:101EBE00E76FA6EF0FF0E10E1F6E290E206E30C0F9
:101ECE0021F031C022F0E9EC13F079EF0FF0E85178
:101EDE00E10FD96EDA6A3250E825E16EE26ADFCFA1
:101EEE00E7FFE82B0001E851E10FD96EDA6ADF5007
:101EFE00D8B484EF0FF086EF0FF097EF0FF0040ECB
:101F0E00E8658CEF0FF08EEF0FF06EEF0FF097EF9E
:101F1E000FF03250E825D96EDA6A200EDF6EE82B0C
:101F2E00040EE8659DEF0FF09FEF0FF090EF0FF0AE
:101F3E003250E825D96EDA6ADF6A010EE76FE75193
:101F4E0012000150D8B4AEEF0FF0B0EF0FF0B8EFB3
:101F5E000FF00250D8A4B6EF0FF0B8EF0FF0BAEFB3
:101F6E000FF0FFEF0FF00150D96EDA6A070ED92687
:101F7E00DE04D8A4C5EF0FF0C7EF0FF0DAEF0FF0C5
:101F8E00C350C4CF03F0046A03C004F0036A0326EF
:101F9E00000E04220250D96EDA6A03C0DEFF04C0BE
:101FAE00DDFFFFEF0FF00150D96EDA6A070ED9266A
:101FBE00DF50D8A4E5EF0FF0E7EF0FF0C7EF0FF00B
:101FCE00C350C4CF03F0046A03C004F0036A0326AF
:101FDE00000E0422060ED89003360436E82EF2EFD9
:101FEE000FF00250D96EDA6A03C0DEFF04C0DDFFC7
:101FFE00000E12000C50D8A407EF10F009EF10F0ED
:10200E000DEF10F0000E0E6E55EF10F0C2900C504A
:10201E00D96EDA6A030ED926DF500D6E0D460D46C7
:10202E000D46C0500D18C70B0D18C06E0C50D96E52
:10203E00DA6A040ED926DF500D6EC0500D18F80B5B
:10204E000D18C06E0C50D96EDA6A050ED926DF5007
:10205E000D6E0D460D46C2500D18C30B0D18C26EF7
:10206E000C50D96EDA6A050ED926DF505CEC0EF0F4
:10207E009D8C9E9CF28EF28C0C50D96EDA6ADECF5D
:10208E003AF0DDCF3BF00CC009F064EC13F00CC05D
:10209E0009F007EC13F0C280010E0E6E0E50120006
:1020AE000B50D8B45DEF10F05FEF10F067EF10F04B
:1020BE000B50D8A465EF10F067EF10F06CEF10F036
:1020CE000950C4EC14F0ABEF10F00B50D96EDA6A75
:1020DE000A0ED926DE50DE10D8B478EF10F07AEF63
:1020EE0010F093EF10F00B50D96EDA6A0A0ED92663
:1020FE000B50E16EE26A030EE126DE50E65CE6501E
:10210E00800A106EDE50800A1058D8B091EF10F091
:10211E0093EF10F0ABEF10F00B50D96EDA6A030E9E
:10212E00D926DF500C6E0B50D96EDA6ADF500C24B4
:10213E00D96EDA6A09C0DFFF0B50D96EDA6A030E68
:10214E00D926DE2A000EDD2212001B50D8B4B2EFC3
:10215E0010F0B4EF10F0BDEF10F01E501F10D8A409
:10216E00BBEF10F0BDEF10F0C1EF10F0000E206EBF
:10217E00FEEF10F01BC017F01CC018F01DC019F0B8
:10218E0014EC12F0206EE5EF10F01BC014F01EC020
:10219E00F6FF1FC0F7FF000EF86E0F0EF76403D0A8
:1021AE000800F55005D0F6CFE9FFF7CFEAFFEF5064
:1021BE00156E36EC13F0206E1E4A1F2A1EC0F6FF57
:1021CE001FC0F7FF000EF86E0F0EF76403D0080065
:1021DE00F55005D0F6CFE9FFF7CFEAFFEF50000933
:1021EE00D8A4FCEF10F0FEEF10F0CCEF10F0205062
:1021FE001200000E0F6E000E0E6E0B500C10D8B4A7
:10220E000BEF11F00DEF11F035EF11F0010E0D6E19
:10221E0015EF11F0D8900B360C360D2A0CAE1AEFC6
:10222E0011F01CEF11F011EF11F0D8900E360F36A1
:10223E000B50095C0C500A58D8A028EF11F02AEF69
:10224E0011F02FEF11F00B50095E0C500A5A0E8050
:10225E00D8900C320B320D2E1CEF11F00EC009F07F
:10226E000FC00AF012003E50D8A440EF11F042EF1A
:10227E0011F04DEF11F0CB0E016E4B0E026EA8EC6D
:10228E000FF04D6E010E3E6E72EF11F03E04D8A4AB
:10229E0053EF11F055EF11F060EF11F0CB0E016E10
:1022AE00490E026EA8EC0FF04D6E020E3E6E72EFEE
:1022BE0011F0020E3E18D8A467EF11F069EF11F07D
:1022CE0072EF11F0CB0E016E470E026EA8EC0FF0FE
:1022DE004D6E000E3E6E12009E0EF66E270EF76EBF
:1022EE00000EF86E00EEADF010EE34F00900F5CFF2
:1022FE00EEFFE550E150FAE16A0EF66E290EF76E2A
:10230E00000EF86E00EE4DF010EE09F00900F5CF5C
:10231E00EEFFE550E150FAE101EE00F0200EEE6A1C
:10232E00E806FDE100EE60F04D0EEE6AE806FDE116
:10233E0000EE34F0190EEE6AE806FDE15690569264
:10234E0000012CEF0AF01150D8A4B0EF11F0B2EF4B
:10235E0011F0B6EF11F0000E136EDFEF11F0115009
:10236E00020F096E1250010B0A6E50EC0DF0136E37
:10237E001150030F096ED8901230010B0A6E50ECFB
:10238E000DF0136E1150040F096E1240E8423F0B10
:10239E00010B0A6E50EC0DF0136E1150050F096E05
:1023AE001238E8461F0B010B0A6E50EC0DF0136E3F
:1023BE00135012001450D8A4E7EF11F0E9EF11F00A
:1023CE00EBEF11F013EF12F046C016F01450D96E69
:1023DE00DA6ADF500F0B156E16501518F80B15181C
:1023EE00166E1450D96EDA6ADF38070B156E154665
:1023FE001546154616501518C70B1518166E169C51
:10240E001450D96EDA6ADFAE02D0168E01D0169E47
:10241E00160E116ED8EC12F01200000E1A6E175036
:10242E00D8A41CEF12F01EEF12F022EF12F0000EE5
:10243E001A6E44EF12F0190639EF12F017C014F0AD
:10244E001950800F156E78EC12F01A6E44EF12F0E0
:10245E0017C014F01950C00F156E78EC12F01A6EEA
:10246E0044EF12F01850010AD8B425EF12F0030A07
:10247E00D8B42FEF12F044EF12F01A5012000B5096
:10248E000C10D8B44DEF12F04FEF12F073EF12F0B4
:10249E00010E0D6E57EF12F0D8900B360C360D2A3A
:1024AE000CAE5CEF12F05EEF12F053EF12F00B5029
:1024BE00095C0C500A58D8A067EF12F069EF12F0C1
:1024CE006DEF12F00B50095E0C500A5AD8900C3278
:1024DE000B320D2E5EEF12F009C009F00AC00AF0A1
:1024EE0012001450D8A47EEF12F080EF12F084EF99
:1024FE0012F0000E166EA6EF12F014C009F0000EC8
:10250E000A6E50EC0DF0166E14C011F015380F0B4C
:10251E00126EAAEC11F0166E14C011F0B0EC13F09E
:10252E00166E14C011F015C012F0AAEC11F0166E52
:10253E0014C011F0B0EC13F0166E010E166E16509C
:10254E001200000E156E000E166E1450D8A4B2EFC7
:10255E0012F0B4EF12F0B6EF12F0D7EF12F0000E49
:10256E00156E14501524116ED8EC12F0152A030EA8
:10257E001564C4EF12F0C6EF12F0B8EF12F0000EB1
:10258E00166E14501624040F116ED8EC12F0162A83
:10259E00030E1664D5EF12F0D7EF12F0C8EF12F05B
:1025AE001200010E136E1150D8B4E0EF12F0E2EFEC
:1025BE0012F0F2EF12F01150D96EDA6ADF30E83213
:1025CE00E832070B126E070E1264F0EF12F0F2EF04
:1025DE0012F0F6EF12F0000E136E05EF13F011C0AD
:1025EE0009F0C7EC0CF011C009F01150D96EDA6A7F
:1025FE00000EDFBE010E0A6E50EC0DF013501200ED
:10260E000950D8A40DEF13F00FEF13F011EF13F0E4
:10261E0035EF13F00950D96EDA6A060ED926DE04AC
:10262E00D8A41CEF13F01EEF13F022EF13F0C18AA3
:10263E00C18835EF13F00950D96EDA6A060ED92625
:10264E00DF50D8A42DEF13F02FEF13F033EF13F06C
:10265E00C19AC19835EF13F0C19AC1981200145067
:10266E00D8A43CEF13F03EEF13F042EF13F0000E40
:10267E00166E62EF13F014C009F0010E0A6E50ECE4
:10268E000DF0166E14C011F015380F0B126EAAEC69
:10269E0011F0166E14C011F0B0EC13F0166E14C0DB
:1026AE0011F015C012F0AAEC11F0166E14C011F054
:1026BE00B0EC13F0166E165012000950D8A46AEF43
:1026CE0013F06CEF13F06EEF13F08FEF13F0095061
:1026DE00D96EDA6A070ED926DE04D8A479EF13F084
:1026EE007BEF13F07EEF13F0C08E8FEF13F00950D7
:1026FE00D96EDA6A070ED926DF50D8A489EF13F007
:10270E008BEF13F08EEF13F0C09E8FEF13F0C08E91
:10271E0012001CC01EF09CEF13F01BC011F01E0E19
:10272E00126E1DC013F009EC0CF01EC0F6FF100E59
:10273E00F76EF86A0800F5500009D8A4A9EF13F057
:10274E00ABEF13F094EF13F0000E1C6E000E1B6E29
:10275E0012001150D8A4B6EF13F0B8EF13F0BCEF7F
:10276E0013F0000E126ECDEF13F01128096E010E4C
:10277E000A6E50EC0DF0030EE82EFED70000112865
:10278E00096E000E0A6E50EC0DF0126E1250120011
:10279E00800F810F820F830F840F890F8A0F8B0F8B
:1027AE008C0F8D0F920F930F940F950F960F74221F
:1027BE00000505000001020A121A626A727A222AC4
:1027CE00323A030B210E236E1FC024F0000E286E2A
:1027DE00000E276E000E2F6E000E2E6E240E1B6E38
:1027EE0020C01CF0230E1D6E90EC13F01F502724FA
:1027FE00D96EDA6ADF6A12000F50D8A409EF14F00E
:10280E000BEF14F00FEF14F0000E116E1BEF14F01F
:10281E000FC00CF010C00DF036EC14F0116E0FC09E
:10282E0009F093EC14F0116E11501200550E146E47
:10283E00E1EC11F0540E146EE1EC11F0530E146E27
:10284E00E1EC11F0520E146EE1EC11F0D30E146E99
:10285E00A8EC12F0DB0E176ED5EC0EF012000C5039
:10286E00D8A43CEF14F03EEF14F040EF14F04CEF10
:10287E0014F00DC00EF00E460E46C2500E18C30BCD
:10288E000E18C26E0D505CEC0EF0000E12001150C0
:10289E00D8A454EF14F056EF14F058EF14F064EF80
:1028AE0014F011C009F0010E0A6E50EC0DF0112853
:1028BE00096E000E0A6E50EC0DF012001150D8A4E5
:1028CE006BEF14F06DEF14F06FEF14F07BEF14F06C
:1028DE0011C009F0000E0A6E50EC0DF01128096EB1
:1028EE00010E0A6E50EC0DF012009E9C3A503B10F9
:1028FE00D8B484EF14F086EF14F092EF14F002D8EF
:10290E0092EF14F00500FA6E3A50FD6E3B50FE6EDB
:10291E00FF6AFA50120012000950D8A499EF14F071
:10292E009BEF14F09DEF14F09EEF14F0C282000E98
:10293E001200016EF2900104D8A4A8EF14F0AAEFD1
:10294E0014F0ACEF14F0ACEF14F012001DEC14F018
:10295E00CB0E0C6E01EC10F04D6E120001121A022D
:05296E000AB222120272
:10297400A19212009E9212009E901200F2941200F4
:06298400F29212001200A5
:020000040030CA
:0E000000FF02191FFF8181FF0FC00FE00F40AC
:00000001FF
